{
  "contractName": "FootballContest",
  "abi": [
    {
      "constant": true,
      "inputs": [],
      "name": "actualAway",
      "outputs": [
        {
          "name": "",
          "type": "int128"
        }
      ],
      "payable": false,
      "stateMutability": "view",
      "type": "function"
    },
    {
      "constant": true,
      "inputs": [
        {
          "name": "",
          "type": "uint8"
        },
        {
          "name": "",
          "type": "uint256"
        }
      ],
      "name": "contestants",
      "outputs": [
        {
          "name": "addr",
          "type": "address"
        },
        {
          "name": "amount",
          "type": "uint256"
        }
      ],
      "payable": false,
      "stateMutability": "view",
      "type": "function"
    },
    {
      "constant": true,
      "inputs": [],
      "name": "grandPrice",
      "outputs": [
        {
          "name": "",
          "type": "uint256"
        }
      ],
      "payable": false,
      "stateMutability": "view",
      "type": "function"
    },
    {
      "constant": true,
      "inputs": [],
      "name": "isResolved",
      "outputs": [
        {
          "name": "",
          "type": "bool"
        }
      ],
      "payable": false,
      "stateMutability": "view",
      "type": "function"
    },
    {
      "constant": true,
      "inputs": [],
      "name": "actualHome",
      "outputs": [
        {
          "name": "",
          "type": "int128"
        }
      ],
      "payable": false,
      "stateMutability": "view",
      "type": "function"
    },
    {
      "inputs": [
        {
          "name": "_wbi",
          "type": "address"
        }
      ],
      "payable": false,
      "stateMutability": "nonpayable",
      "type": "constructor"
    },
    {
      "constant": true,
      "inputs": [
        {
          "name": "winner",
          "type": "uint8"
        }
      ],
      "name": "getContestants",
      "outputs": [
        {
          "components": [
            {
              "name": "addr",
              "type": "address"
            },
            {
              "name": "amount",
              "type": "uint256"
            }
          ],
          "name": "",
          "type": "tuple[]"
        }
      ],
      "payable": false,
      "stateMutability": "view",
      "type": "function"
    },
    {
      "constant": false,
      "inputs": [
        {
          "name": "_requestFee",
          "type": "uint256"
        },
        {
          "name": "_resultFee",
          "type": "uint256"
        }
      ],
      "name": "initialize",
      "outputs": [],
      "payable": true,
      "stateMutability": "payable",
      "type": "function"
    },
    {
      "constant": false,
      "inputs": [
        {
          "name": "winner",
          "type": "uint8"
        }
      ],
      "name": "participate",
      "outputs": [],
      "payable": true,
      "stateMutability": "payable",
      "type": "function"
    },
    {
      "constant": false,
      "inputs": [],
      "name": "resolve",
      "outputs": [],
      "payable": false,
      "stateMutability": "nonpayable",
      "type": "function"
    }
  ],
  "bytecode": "0x60806040523480156200001157600080fd5b5060405160208062002c818339810180604052620000339190810190620000d4565b80806000806101000a81548173ffffffffffffffffffffffffffffffffffffffff021916908373ffffffffffffffffffffffffffffffffffffffff1602179055505033600160006101000a81548173ffffffffffffffffffffffffffffffffffffffff021916908373ffffffffffffffffffffffffffffffffffffffff160217905550506200014e565b600081519050620000ce8162000134565b92915050565b600060208284031215620000e757600080fd5b6000620000f784828501620000bd565b91505092915050565b60006200010d8262000114565b9050919050565b600073ffffffffffffffffffffffffffffffffffffffff82169050919050565b6200013f8162000100565b81146200014b57600080fd5b50565b612b23806200015e6000396000f3fe608060405260043610620000925760003560e01c80637d6718fb11620000615780637d6718fb1462000145578063bb4a35d5146200018a578063dbb3f53714620001ba578063e3c496d114620001ea578063e4a30116146200021a5762000092565b80630cc9ae0514620000975780631981d52114620000db5780632810e1d614620000fb57806344813db01462000115575b600080fd5b348015620000a457600080fd5b50620000c36004803603620000bd919081019062001825565b6200023a565b604051620000d2919062001e33565b60405180910390f35b620000f96004803603620000f3919081019062001825565b62000314565b005b3480156200010857600080fd5b5062000113620004da565b005b3480156200012257600080fd5b506200012d62000c29565b6040516200013c919062001ecc565b60405180910390f35b3480156200015257600080fd5b506200017160048036036200016b919081019062001851565b62000c3c565b6040516200018192919062001e06565b60405180910390f35b3480156200019757600080fd5b50620001a262000c9b565b604051620001b1919062001fd9565b60405180910390f35b348015620001c757600080fd5b50620001d262000ca1565b604051620001e1919062001e57565b60405180910390f35b348015620001f757600080fd5b506200020262000cb4565b60405162000211919062001ecc565b60405180910390f35b620002386004803603620002329190810190620017e4565b62000cc7565b005b6060600760008360ff1660ff168152602001908152602001600020805480602002602001604051908101604052809291908181526020016000905b828210156200030957838290600052602060002090600202016040518060400160405290816000820160009054906101000a900473ffffffffffffffffffffffffffffffffffffffff1673ffffffffffffffffffffffffffffffffffffffff1673ffffffffffffffffffffffffffffffffffffffff1681526020016001820154815250508152602001906001019062000275565b505050509050919050565b600254620003228162000e76565b62000364576040517f08c379a00000000000000000000000000000000000000000000000000000000081526004016200035b9062001f71565b60405180910390fd5b600354620003728162000e76565b620003b4576040517f08c379a0000000000000000000000000000000000000000000000000000000008152600401620003ab9062001f71565b60405180910390fd5b600660009054906101000a900460ff161562000407576040517f08c379a0000000000000000000000000000000000000000000000000000000008152600401620003fe9062001f2d565b60405180910390fd5b600760008460ff1660ff16815260200190815260200160002060405180604001604052803373ffffffffffffffffffffffffffffffffffffffff168152602001348152509080600181540180825580915050906001820390600052602060002090600202016000909192909190915060008201518160000160006101000a81548173ffffffffffffffffffffffffffffffffffffffff021916908373ffffffffffffffffffffffffffffffffffffffff160217905550602082015181600101555050503460045401600481905550505050565b600660009054906101000a900460ff16156200052d576040517f08c379a0000000000000000000000000000000000000000000000000000000008152600401620005249062001f4f565b60405180910390fd5b6200053a60025462000f43565b73__Witnet________________________________63c71db52190916040518263ffffffff1660e01b815260040162000574919062001fb5565b60206040518083038186803b1580156200058d57600080fd5b505af4158015620005a2573d6000803e3d6000fd5b505050506040513d601f19601f82011682018060405250620005c8919081019062001747565b600560006101000a8154816fffffffffffffffffffffffffffffffff0219169083600f0b6fffffffffffffffffffffffffffffffff1602179055506200061060035462000f43565b73__Witnet________________________________63c71db52190916040518263ffffffff1660e01b81526004016200064a919062001fb5565b60206040518083038186803b1580156200066357600080fd5b505af415801562000678573d6000803e3d6000fd5b505050506040513d601f19601f820116820180604052506200069e919081019062001747565b600560106101000a8154816fffffffffffffffffffffffffffffffff0219169083600f0b6fffffffffffffffffffffffffffffffff1602179055506060600560109054906101000a9004600f0b600f0b600560009054906101000a9004600f0b600f0b1415620007de57600760008060ff168152602001908152602001600020805480602002602001604051908101604052809291908181526020016000905b82821015620007d257838290600052602060002090600202016040518060400160405290816000820160009054906101000a900473ffffffffffffffffffffffffffffffffffffffff1673ffffffffffffffffffffffffffffffffffffffff1673ffffffffffffffffffffffffffffffffffffffff168152602001600182015481525050815260200190600101906200073e565b505050509050620009b5565b6000600560109054906101000a9004600f0b600560009054906101000a9004600f0b03600f0b1315620008e25760076000600160ff168152602001908152602001600020805480602002602001604051908101604052809291908181526020016000905b82821015620008d657838290600052602060002090600202016040518060400160405290816000820160009054906101000a900473ffffffffffffffffffffffffffffffffffffffff1673ffffffffffffffffffffffffffffffffffffffff1673ffffffffffffffffffffffffffffffffffffffff1681526020016001820154815250508152602001906001019062000842565b505050509050620009b4565b60076000600260ff168152602001908152602001600020805480602002602001604051908101604052809291908181526020016000905b82821015620009ad57838290600052602060002090600202016040518060400160405290816000820160009054906101000a900473ffffffffffffffffffffffffffffffffffffffff1673ffffffffffffffffffffffffffffffffffffffff1673ffffffffffffffffffffffffffffffffffffffff1681526020016001820154815250508152602001906001019062000919565b5050505090505b5b60008151141562000b1d5760008090505b60038160ff16101562000b165760008090505b600760008360ff1660ff1681526020019081526020016000208054905081101562000b075762000a08620011e2565b600760008460ff1660ff168152602001908152602001600020828154811062000a2d57fe5b90600052602060002090600202016040518060400160405290816000820160009054906101000a900473ffffffffffffffffffffffffffffffffffffffff1673ffffffffffffffffffffffffffffffffffffffff1673ffffffffffffffffffffffffffffffffffffffff1681526020016001820154815250509050806000015173ffffffffffffffffffffffffffffffffffffffff166108fc82602001519081150290604051600060405180830381858888f1935050505015801562000af7573d6000803e3d6000fd5b50508080600101915050620009d9565b508080600101915050620009c6565b5062000c0b565b600080905060008090505b825181101562000b5d5782818151811062000b3f57fe5b60200260200101516020015182019150808060010191505062000b28565b506000816004548162000b6c57fe5b04905060008090505b835181101562000c075762000b89620011e2565b84828151811062000b9657fe5b602002602001015190506000838260200151029050816000015173ffffffffffffffffffffffffffffffffffffffff166108fc829081150290604051600060405180830381858888f1935050505015801562000bf6573d6000803e3d6000fd5b505050808060010191505062000b75565b5050505b6001600660006101000a81548160ff02191690831515021790555050565b600560109054906101000a9004600f0b81565b6007602052816000526040600020818154811062000c5657fe5b9060005260206000209060020201600091509150508060000160009054906101000a900473ffffffffffffffffffffffffffffffffffffffff16908060010154905082565b60045481565b600660009054906101000a900460ff1681565b600560009054906101000a9004600f0b81565b600160009054906101000a900473ffffffffffffffffffffffffffffffffffffffff1673ffffffffffffffffffffffffffffffffffffffff163373ffffffffffffffffffffffffffffffffffffffff161462000d5a576040517f08c379a000000000000000000000000000000000000000000000000000000000815260040162000d519062001f0b565b60405180910390fd5b60006002541462000da2576040517f08c379a000000000000000000000000000000000000000000000000000000000815260040162000d999062001ee9565b60405180910390fd5b60006003541462000dea576040517f08c379a000000000000000000000000000000000000000000000000000000000815260040162000de19062001f93565b60405180910390fd5b600060405162000dfa9062001212565b604051809103906000f08015801562000e17573d6000803e3d6000fd5b50905062000e278184846200109a565b600281905550600060405162000e3d9062001220565b604051809103906000f08015801562000e5a573d6000803e3d6000fd5b50905062000e6a8185856200109a565b60038190555050505050565b6000806000809054906101000a900473ffffffffffffffffffffffffffffffffffffffff1673ffffffffffffffffffffffffffffffffffffffff166381d12c58846040518263ffffffff1660e01b815260040162000ed5919062001fd9565b60006040518083038186803b15801562000eee57600080fd5b505afa15801562000f03573d6000803e3d6000fd5b505050506040513d6000823e3d601f19601f8201168201806040525062000f2e919081019062001668565b50955050505050506000811415915050919050565b62000f4d6200122e565b73__Witnet________________________________63e99e47f36000809054906101000a900473ffffffffffffffffffffffffffffffffffffffff1673ffffffffffffffffffffffffffffffffffffffff166345b3d782856040518263ffffffff1660e01b815260040162000fc3919062001fd9565b60006040518083038186803b15801562000fdc57600080fd5b505afa15801562000ff1573d6000803e3d6000fd5b505050506040513d6000823e3d601f19601f820116820180604052506200101c919081019062001623565b6040518263ffffffff1660e01b81526004016200103a919062001e74565b60006040518083038186803b1580156200105357600080fd5b505af415801562001068573d6000803e3d6000fd5b505050506040513d6000823e3d601f19601f8201168201806040525062001093919081019062001773565b9050919050565b60008060009054906101000a900473ffffffffffffffffffffffffffffffffffffffff1673ffffffffffffffffffffffffffffffffffffffff1663ec32e3db8385018673ffffffffffffffffffffffffffffffffffffffff1663f09400026040518163ffffffff1660e01b815260040160006040518083038186803b1580156200112357600080fd5b505afa15801562001138573d6000803e3d6000fd5b505050506040513d6000823e3d601f19601f82011682018060405250620011639190810190620015de565b856040518463ffffffff1660e01b81526004016200118392919062001e98565b6020604051808303818588803b1580156200119d57600080fd5b505af1158015620011b2573d6000803e3d6000fd5b50505050506040513d601f19601f82011682018060405250620011d99190810190620017b8565b90509392505050565b6040518060400160405280600073ffffffffffffffffffffffffffffffffffffffff168152602001600081525090565b610440806200226a83390190565b61044080620026aa83390190565b6040518061010001604052806000151581526020016200124d62001253565b81525090565b6040518060e0016040528062001268620012ae565b8152602001600060ff168152602001600060ff168152602001600060ff168152602001600067ffffffffffffffff168152602001600067ffffffffffffffff1681525090565b604051806040016040528060608152602001600067ffffffffffffffff1681525090565b600081519050620012e381620021cd565b92915050565b600081519050620012fa81620021e7565b92915050565b600082601f8301126200131257600080fd5b815162001329620013238262002024565b62001ff6565b915080825260208301602083018583830111156200134657600080fd5b6200135383828462002186565b50505092915050565b600082601f8301126200136e57600080fd5b8151620013856200137f8262002051565b62001ff6565b91508082526020830160208301858383011115620013a257600080fd5b620013af83828462002186565b50505092915050565b600081519050620013c98162002201565b92915050565b600060408284031215620013e257600080fd5b620013ee604062001ff6565b9050600082015167ffffffffffffffff8111156200140b57600080fd5b620014198482850162001300565b60008301525060206200142f8482850162001599565b60208301525092915050565b6000604082840312156200144e57600080fd5b6200145a604062001ff6565b905060006200146c84828501620012e9565b600083015250602082015167ffffffffffffffff8111156200148d57600080fd5b6200149b84828501620014a7565b60208301525092915050565b600060c08284031215620014ba57600080fd5b620014c660c062001ff6565b9050600082015167ffffffffffffffff811115620014e357600080fd5b620014f184828501620013cf565b60008301525060206200150784828501620015c7565b60208301525060406200151d84828501620015c7565b60408301525060606200153384828501620015c7565b6060830152506080620015498482850162001599565b60808301525060a06200155f8482850162001599565b60a08301525092915050565b6000813590506200157c816200221b565b92915050565b60008151905062001593816200221b565b92915050565b600081519050620015aa8162002235565b92915050565b600081359050620015c1816200224f565b92915050565b600081519050620015d8816200224f565b92915050565b600060208284031215620015f157600080fd5b600082015167ffffffffffffffff8111156200160c57600080fd5b6200161a8482850162001300565b91505092915050565b6000602082840312156200163657600080fd5b600082015167ffffffffffffffff8111156200165157600080fd5b6200165f848285016200135c565b91505092915050565b600080600080600080600060e0888a0312156200168457600080fd5b600088015167ffffffffffffffff8111156200169f57600080fd5b620016ad8a828b0162001300565b9750506020620016c08a828b0162001582565b9650506040620016d38a828b0162001582565b955050606088015167ffffffffffffffff811115620016f157600080fd5b620016ff8a828b0162001300565b9450506080620017128a828b0162001582565b93505060a0620017258a828b0162001582565b92505060c0620017388a828b01620012d2565b91505092959891949750929550565b6000602082840312156200175a57600080fd5b60006200176a84828501620013b8565b91505092915050565b6000602082840312156200178657600080fd5b600082015167ffffffffffffffff811115620017a157600080fd5b620017af848285016200143b565b91505092915050565b600060208284031215620017cb57600080fd5b6000620017db8482850162001582565b91505092915050565b60008060408385031215620017f857600080fd5b600062001808858286016200156b565b92505060206200181b858286016200156b565b9150509250929050565b6000602082840312156200183857600080fd5b60006200184884828501620015b0565b91505092915050565b600080604083850312156200186557600080fd5b60006200187585828601620015b0565b925050602062001888858286016200156b565b9150509250929050565b6000620018a0838362001cb9565b60408301905092915050565b620018b7816200210e565b82525050565b620018c8816200210e565b82525050565b6000620018db826200208b565b620018e78185620020b9565b9350620018f4836200207e565b8060005b838110156200192b5781516200190f888262001892565b97506200191c83620020ac565b925050600181019050620018f8565b5085935050505092915050565b620019438162002122565b82525050565b620019548162002122565b82525050565b60006200196782620020a1565b620019738185620020db565b93506200198581856020860162002186565b6200199081620021bc565b840191505092915050565b6000620019a88262002096565b620019b48185620020ca565b9350620019c681856020860162002186565b620019d181620021bc565b840191505092915050565b6000620019e98262002096565b620019f58185620020ec565b935062001a0781856020860162002186565b62001a1281620021bc565b840191505092915050565b62001a28816200212e565b82525050565b600062001a3d602483620020fd565b91507f486f6d6520726571756573742077617320616c726561647920696e697469616c60008301527f697a6564000000000000000000000000000000000000000000000000000000006020830152604082019050919050565b600062001aa5602883620020fd565b91507f596f75206d75737420626520746865206f776e657220746f2063616c6c20696e60008301527f697469616c697a650000000000000000000000000000000000000000000000006020830152604082019050919050565b600062001b0d602583620020fd565b91507f546865206461746120726571756573742077617320616c72656164792072657360008301527f6f6c7665640000000000000000000000000000000000000000000000000000006020830152604082019050919050565b600062001b75601f83620020fd565b91507f54686520636f6e7465737420697320616c7265616479207265736f766c6564006000830152602082019050919050565b600062001bb7603a83620020fd565b91507f5769746e65742072657175657374206973206e6f74207965742061636365707460008301527f656420696e746f20746865205769746e6574206e6574776f726b0000000000006020830152604082019050919050565b600062001c1f602483620020fd565b91507f4177617920726571756573742077617320616c726561647920696e697469616c60008301527f697a6564000000000000000000000000000000000000000000000000000000006020830152604082019050919050565b6000604083016000830151848203600086015262001c978282620019dc565b915050602083015162001cae602086018262001de4565b508091505092915050565b60408201600082015162001cd16000850182620018ac565b50602082015162001ce6602085018262001dc2565b50505050565b600060408301600083015162001d06600086018262001949565b506020830151848203602086015262001d20828262001d2d565b9150508091505092915050565b600060c083016000830151848203600086015262001d4c828262001c78565b915050602083015162001d63602086018262001df5565b50604083015162001d78604086018262001df5565b50606083015162001d8d606086018262001df5565b50608083015162001da2608086018262001de4565b5060a083015162001db760a086018262001de4565b508091505092915050565b62001dcd816200215b565b82525050565b62001dde816200215b565b82525050565b62001def8162002165565b82525050565b62001e008162002179565b82525050565b600060408201905062001e1d6000830185620018bd565b62001e2c602083018462001dd3565b9392505050565b6000602082019050818103600083015262001e4f8184620018ce565b905092915050565b600060208201905062001e6e600083018462001938565b92915050565b6000602082019050818103600083015262001e9081846200195a565b905092915050565b6000604082019050818103600083015262001eb481856200199b565b905062001ec5602083018462001dd3565b9392505050565b600060208201905062001ee3600083018462001a1d565b92915050565b6000602082019050818103600083015262001f048162001a2e565b9050919050565b6000602082019050818103600083015262001f268162001a96565b9050919050565b6000602082019050818103600083015262001f488162001afe565b9050919050565b6000602082019050818103600083015262001f6a8162001b66565b9050919050565b6000602082019050818103600083015262001f8c8162001ba8565b9050919050565b6000602082019050818103600083015262001fae8162001c10565b9050919050565b6000602082019050818103600083015262001fd1818462001cec565b905092915050565b600060208201905062001ff0600083018462001dd3565b92915050565b6000604051905081810181811067ffffffffffffffff821117156200201a57600080fd5b8060405250919050565b600067ffffffffffffffff8211156200203c57600080fd5b601f19601f8301169050602081019050919050565b600067ffffffffffffffff8211156200206957600080fd5b601f19601f8301169050602081019050919050565b6000602082019050919050565b600081519050919050565b600081519050919050565b600081519050919050565b6000602082019050919050565b600082825260208201905092915050565b600082825260208201905092915050565b600082825260208201905092915050565b600082825260208201905092915050565b600082825260208201905092915050565b60006200211b826200213b565b9050919050565b60008115159050919050565b600081600f0b9050919050565b600073ffffffffffffffffffffffffffffffffffffffff82169050919050565b6000819050919050565b600067ffffffffffffffff82169050919050565b600060ff82169050919050565b60005b83811015620021a657808201518184015260208101905062002189565b83811115620021b6576000848401525b50505050565b6000601f19601f8301169050919050565b620021d8816200210e565b8114620021e457600080fd5b50565b620021f28162002122565b8114620021fe57600080fd5b50565b6200220c816200212e565b81146200221857600080fd5b50565b62002226816200215b565b81146200223257600080fd5b50565b620022408162002165565b81146200224c57600080fd5b50565b6200225a8162002179565b81146200226657600080fd5b5056fe608060405234801561001057600080fd5b5060405180610120016040528060f1815260200161034f60f1913980600090805190602001906100419291906100ef565b506002816040518082805190602001908083835b602083106100785780518252602082019150602081019050602083039250610055565b6001836020036101000a038019825116818451168082178552505050505050905001915050602060405180830381855afa1580156100ba573d6000803e3d6000fd5b5050506040513d60208110156100cf57600080fd5b810190808051906020019092919050505060001c60018190555050610194565b828054600181600116156101000203166002900490600052602060002090601f016020900481019282601f1061013057805160ff191683800117855561015e565b8280016001018555821561015e579182015b8281111561015d578251825591602001919060010190610142565b5b50905061016b919061016f565b5090565b61019191905b8082111561018d576000816000905550600101610175565b5090565b90565b6101ac806101a36000396000f3fe608060405234801561001057600080fd5b50600436106100365760003560e01c8063af640d0f1461003b578063f094000214610059575b600080fd5b6100436100dc565b6040518082815260200191505060405180910390f35b6100616100e2565b6040518080602001828103825283818151815260200191508051906020019080838360005b838110156100a1578082015181840152602081019050610086565b50505050905090810190601f1680156100ce5780820380516001836020036101000a031916815260200191505b509250505060405180910390f35b60015481565b60008054600181600116156101000203166002900480601f0160208091040260200160405190810160405280929190818152602001828054600181600116156101000203166002900480156101785780601f1061014d57610100808354040283529160200191610178565b820191906000526020600020905b81548152906001019060200180831161015b57829003601f168201915b50505050508156fea165627a7a72305820a9c9e7edab8283758841a91aede86be11900a3e19c783c008fb0c0c3df29acca00290ae2010899f6eeeb05125e122c68747470733a2f2f7777772e736f666173636f72652e636f6d2f6576656e742f383339373731342f6a736f6e1a2e8918451874821861656576656e74187482186169686f6d6553636f726518748218616763757272656e741872183c1268123468747470733a2f2f77656277732e33363573636f7265732e636f6d2f7765622f67616d652f3f67616d6549643d323038383036361a3089184518748218616467616d6518748218616e686f6d65436f6d70657469746f7218748218616573636f72651872183c1a070a05818218570222070a058182185702100a18012001280130013801608060405234801561001057600080fd5b5060405180610120016040528060f1815260200161034f60f1913980600090805190602001906100419291906100ef565b506002816040518082805190602001908083835b602083106100785780518252602082019150602081019050602083039250610055565b6001836020036101000a038019825116818451168082178552505050505050905001915050602060405180830381855afa1580156100ba573d6000803e3d6000fd5b5050506040513d60208110156100cf57600080fd5b810190808051906020019092919050505060001c60018190555050610194565b828054600181600116156101000203166002900490600052602060002090601f016020900481019282601f1061013057805160ff191683800117855561015e565b8280016001018555821561015e579182015b8281111561015d578251825591602001919060010190610142565b5b50905061016b919061016f565b5090565b61019191905b8082111561018d576000816000905550600101610175565b5090565b90565b6101ac806101a36000396000f3fe608060405234801561001057600080fd5b50600436106100365760003560e01c8063af640d0f1461003b578063f094000214610059575b600080fd5b6100436100dc565b6040518082815260200191505060405180910390f35b6100616100e2565b6040518080602001828103825283818151815260200191508051906020019080838360005b838110156100a1578082015181840152602081019050610086565b50505050905090810190601f1680156100ce5780820380516001836020036101000a031916815260200191505b509250505060405180910390f35b60015481565b60008054600181600116156101000203166002900480601f0160208091040260200160405190810160405280929190818152602001828054600181600116156101000203166002900480156101785780601f1061014d57610100808354040283529160200191610178565b820191906000526020600020905b81548152906001019060200180831161015b57829003601f168201915b50505050508156fea165627a7a723058204d5f00401ce20d83833a0f31b7dce5d2256dc5628e5a2a120b6c87e1e539d04d00290ae2010899f6eeeb05125e122c68747470733a2f2f7777772e736f666173636f72652e636f6d2f6576656e742f383339373731342f6a736f6e1a2e8918451874821861656576656e741874821861696177617953636f726518748218616763757272656e741872183c1268123468747470733a2f2f77656277732e33363573636f7265732e636f6d2f7765622f67616d652f3f67616d6549643d323038383036361a3089184518748218616467616d6518748218616e61776179436f6d70657469746f7218748218616573636f72651872183c1a070a05818218570222070a058182185702100a18012001280130013801a265627a7a72305820af141c212776a0d4c21eec5f6c27d14948ca68d23938dd5e902473d4670f8eef6c6578706572696d656e74616cf50037",
  "source": "pragma solidity ^0.5.0;\npragma experimental ABIEncoderV2;\n\nimport \"witnet-ethereum-bridge/contracts/UsingWitnet.sol\";\nimport \"./requests/FootballHome.sol\";\nimport \"./requests/FootballAway.sol\";\n\n\ncontract FootballContest is UsingWitnet {\n  using SafeMath for uint256;\n\n  address owner;\n  uint256 footballHomeRequestId;\n  uint256 footballAwayRequestId;\n  uint256 public grandPrice;\n  int128 public actualHome;\n  int128 public actualAway;\n  bool public isResolved;\n  mapping(uint8 => Contestant[]) public contestants;\n\n  struct Contestant {\n    address payable addr;\n    uint256 amount;\n  }\n\n  constructor (address _wbi) UsingWitnet(_wbi) public {\n    owner = msg.sender;\n  }\n\n  function getContestants(uint8 winner) public view returns (Contestant[] memory) {\n    return contestants[winner];\n  }\n\n  function initialize(uint256 _requestFee, uint256 _resultFee) public payable {\n    require(msg.sender == owner, \"You must be the owner to call initialize\");\n    require(footballHomeRequestId == 0, \"Home request was already initialized\");\n    require(footballAwayRequestId == 0, \"Away request was already initialized\");\n\n    Request footballHomeRequest = new FootballHomeRequest();\n    footballHomeRequestId = witnetPostRequest(footballHomeRequest, _requestFee, _resultFee);\n\n    Request footballAwayRequest = new FootballAwayRequest();\n    footballAwayRequestId = witnetPostRequest(footballAwayRequest, _requestFee, _resultFee);\n  }\n\n  // Winner is defined as: 0 draw, 1 home, 2 away\n  function participate(uint8 winner) public payable witnetRequestAccepted(footballHomeRequestId) witnetRequestAccepted(footballAwayRequestId){\n    require(!isResolved, \"The data request was already resolved\");\n    contestants[winner].push(Contestant(msg.sender, msg.value));\n    grandPrice = grandPrice + msg.value;\n  }\n\n  function resolve() public {\n    require(!isResolved, \"The contest is already resovled\");\n\n    actualHome = witnetReadResult(footballHomeRequestId).asInt128();\n    actualAway = witnetReadResult(footballAwayRequestId).asInt128();\n\n    Contestant[] memory winners;\n    if (actualHome == actualAway) {\n      winners = contestants[0];\n    } else if (actualHome - actualAway > 0) {\n      winners = contestants[1];\n    } else {\n      winners = contestants[2];\n    }\n\n    if (winners.length == 0) {\n      for (uint8 i = 0; i < 3; i++) {\n        for (uint j = 0; j < contestants[i].length; j++) {\n          Contestant memory contestant = contestants[i][j];\n          contestant.addr.transfer(contestant.amount);\n        }\n      }\n    }\n    else {\n      uint256 total_from_winners = 0;\n      for (uint i = 0; i < winners.length; i++) {\n        total_from_winners = total_from_winners + winners[i].amount;\n      }\n\n      uint256 prize_share = grandPrice / total_from_winners;\n      for (uint i = 0; i < winners.length; i++) {\n        Contestant memory winner = winners[i];\n        uint256 prize = winner.amount * prize_share;\n        winner.addr.transfer(prize);\n      }\n    }\n\n    isResolved = true;\n  }\n\n  modifier before(uint256 _timestamp) {\n    require(block.timestamp < _timestamp, \"The participation window is over\");\n    _;\n  }\n}\n",
  "sourcePath": "/home/cyric/git/techparty-workshop/contracts/FootballContest.sol",
  "compiler": {
    "name": "solc",
    "version": "0.5.8+commit.23d335f2.Emscripten.clang"
  },
  "schemaVersion": "3.0.11",
  "updatedAt": "2019-09-13T15:52:54.507Z",
  "devdoc": {
    "methods": {}
  },
  "userdoc": {
    "methods": {}
  }
}